:100319003738392F343536583132332D4F303D2B5C
:10032900456E7465722050617373776F72644C6F98
:10033900636B204F70656E536F727279204E6F4DEB
:0E0349006F7265205472696573323334353635
:10000300E4F52878297C00FD7BFF7A037929FE7FBC
:100013000E12024678377C007D007BFF7A03793726
:100023007E007F0912024678407C007D007BFF7AC8
:100033000379407E007F0812024678487C007D00E9
:100043007BFF7A0379487E007F0A12024678527C4E
:10005300007D007BFF7A0379527E007F0512024602
:10006300C294C295C296C29775A0FF7F381203A6A9
:100073007F0E1203A67F801203A67F061203A6E457
:10008300F522E522C39404400302011D7F011203FC
:10009300A6E4F521742912037F0521E521C3940EFB
:1000A30040F27FC01203A6E4F52112026C742325EB
:1000B30021F8A6077F2A1203840521E521C39405AD
:1000C30040E8E523B552020528E524B55302052887
:1000D300E525B554020528E526B555020528E5278B
:1000E300B556020528E528D3940440297F0112035D
:1000F300A6E4F521743712037F0521E521C3940992
:1001030040F2D294C2957F887E1312035FC294E4B7
:10011300F52802008F0522020085C2927F01120397
:10012300A6E4F521744012037F0521E521C3940859
:1001330040F27FC01203A6E4F521744812037F0541
:1001430021E521C3940A40F27FF47E0112035F305C
:10015300A106D296C29780F7E4F52820A1147F4028
:100163007E1F12035F20A1E7C296C297E4F5220225
:02017300008FFB
:010175002267
:08035700C2A5D2A67F017E00C1
:10035F00E4FDFCC3ED9FEC9E5015E4FBFA0BBB00D4
:0F036F00010AEB647F4A70F50DBD00010C80E4BC
:01037E00225C
:10039300D2B7C2A4D2A530B709C2A612035BD2A6B4
:0303A30080F422C1
:0F03A600A90712039389B0C2A4120357C2A6225B
:05037F002521F8E6FF56
:0F038400A90712039389B0D2A4120357C2A6226D
:10026C00E4F590AFA053070FBF0FF512035BAFA0DF
:10027C0053070FEF640F60F37F0112035FAFA053BE
:10028C00070FEF640F60E47590FEAFA053070FEFFC
:10029C00640F6004E4F980317590FDAFA053070F33
:1002AC00EF640F6004790180207590FBAFA05307B9
:1002BC000FEF640F60047902800F7590F7AFA053B5
:1002CC00070FEF640F60027903BF0E0EE925E025DE
:1002DC00E02419F582E43403802DBF0D0EE925E0EE
:1002EC0025E0241AF582E43403801CE9BF0B0D25AC
:1002FC00E025E0241BF582E43403800B25E025E0A7
:0C030C00241CF582E43403F583E493FF25
:0103180022C2
:030000000203B543
:0C03B500787FE4F6D8FD75815602000345
:10017600E709F608DFFA8046E709F208DFFA803E6B
:1001860088828C83E709F0A3DFFA8032E309F60858
:10019600DFFA8078E309F208DFFA807088828C83C0
:1001A600E309F0A3DFFA806489828A83E0A3F60874
:1001B600DFFA805889828A83E0A3F208DFFA804C4E
:1001C60080D280FA80C680D4806980F28033801025
:1001D60080A680EA809A80A880DA80E280CA80338E
:1001E60089828A83ECFAE493A3C8C582C8CCC58306
:1001F600CCF0A3C8C582C8CCC583CCDFE9DEE780D6
:100206000D89828A83E493A3F608DFF9ECFAA9F054
:10021600EDFB2289828A83ECFAE0A3C8C582C8CCAA
:10022600C583CCF0A3C8C582C8CCC583CCDFEADEC3
:10023600E880DB89828A83E493A3F208DFF980CC25
:1002460088F0EF60010E4E60C388F0ED2402B4041E
:100256000050B9F582EB2402B4040050AF232345C5
:0602660082239001C67323
:00000001FF
